:1014870043616E206469656E2074752D56584C0053
:0A149700252E30662067202020007B
:10144700E4FDFCC3ED9FEC9E5015E4FBFA0BBB00DB
:0F145700010AEB647D4A70F50DBD00010C80E4C5
:011466002263
:0314EF00000022D8
:1013BD00D2A11214EFC2A07F007E007D007C002020
:1013CD00A1FDE4FBD2A07801120D9BC2A030A10DAE
:1013DD00EF2401FFE43EFEE43DFDE43CFC0BBB18B5
:0C13ED00E3D2A0ED6480FD1214EFC2A05A
:0113F90022D1
:10125300E4F529F528F527F5261214A17F80121449
:10126300B97BFF7A147987121421E4F524F525124A
:1012730013BD8E228F23AB31AA30A92FA82EC00015
:10128300C001C002C003AC22AD23E4120B10D00393
:10129300D002D001D0001208078F318E308D2F8CF1
:1012A3002E7F147E001214470525E52570020524C0
:1012B300C39414E524940040B6E4FBFA79A0784182
:1012C300AF31AE30AD2FAC2E120A018F358E348D77
:1012D300338C327FC81214B9E4F539F538F537F594
:1012E30036F524F5251213BD8E228F23AB39AA3888
:1012F300A937A836C000C001C002C003AC22AD2389
:10130300E4120B10D003D002D001D0001208078FD3
:10131300398E388D378C367F147E0012144705259D
:10132300E52570020524C3941EE524940040B6E429
:10133300FBFA79F07841AF39AE38AD37AC36120AE3
:1013430001AB35AA34A933A8321208038F2D8E2C92
:101353008D2B8C2AE4FFFEFDFCAB2DAA2CA92BA818
:101363002A120A9E5009E4F52DF52CF52BF52AE4F3
:10137300FBFA7980784BAF2DAE2CAD2BAC2A120A39
:10138300017B407A82798B78471208F88F298E285F
:101393008D278C26753DFF753E14753F978F438EC1
:1013A300428D418C407B007A007908120E407B000D
:0A13B3007A0079081214210212D604
:10146700E4FDFCC3ED9FEC9E5015E4FBFA0BBB00BB
:0F147700010AEB647B4A70F50DBD00010C80E4A7
:011486002243
:1014B900A907C2A57F017E00121467D2A7898012ED
:0514C9001467C2A72218
:1014CE00A907D2A57F017E001214678980D2A712C8
:0514DE001467C2A72203
:101421008B3A8A3B893CAB3AAA3BA93C120D35FF6A
:10143100D3940040101214CE7401253CF53CE435E0
:061441003BF53B80E122B7
:1014A100C2A7C2A67F381214B97F0C1214B97F06E5
:0814B1001214B97F010214B905
:10080000020B7EE86480F8E933E83360110460F09D
:10081000ED33EC337009E8FCE9FDEAFEEBFF22045E
:1008200060DED3EB9FEA9EE99DE8C2E78CF0C2F759
:1008300095F0400CE8CCF8E9CDF9EACEFAEBCFFB25
:10084000120B4985D0F05804700320D5B3E804702A
:10085000075002B2D5020B8892D5EC0460F7E4CCC5
:10086000C0E0C398F8603B94186008400DD0E0FBEE
:10087000020B60E4FBFAC9FC8028E830E406E4C916
:10088000FBE4CAFCE830E305E4C9CACBFCE8540742
:100890006010F8C3E913F9EA13FAEB13FBEC13FC4D
:1008A000D8F130F52FC3E49CFCEF9BFFEE9AFEEDF0
:1008B00099FDD0E0FBEF4E4D4C701222DB03020B92
:1008C00085EC2CFCEF33FFEE33FEED33FDED30E72E
:1008D000EB020B60EF2BFFEE3AFEED39FDD0E0FBB3
:1008E00050130BBB0003020B88ED13FDEE13FEEF5C
:0808F00013FFEC13FC020B6086
:1008F800EC4D6011E8497017ED33EC3304600DE4FA
:10090800FCFFFEFD22E933E8330470F8020B7E1287
:100918000B4958046009E4CC248150062850090288
:100928000B88284003020B85C0E0EB4A7044B9806D
:1009380006D0E0FB020B74EF4E701CBD8008EBFF85
:10094800EAFEE9FD80EBE98DF0A4FEE5F00209E19D
:10095800E9CDF9EAFEEBFFEF89F0A4FCE5F0CE89DA
:10096800F0A42EFFE435F0CD89F0A42DFEE435F097
:100978008067EF4E7005BD80D780C3EF8BF0A4ACC5
:10098800F0EE8BF0A42CFCE435F0F8EF8AF0A42C00
:10099800E5F038FCE433CB8DF0A42CFCE5F03BF813
:1009A800EE8AF0A42CFCE5F038F8E433CF89F0A403
:1009B8002CFCE5F038CF3400CE89F0A42FFFE5F009
:1009C8003EFEE433C98DF0A42EFEE5F039CD8AF061
:1009D800A42FFFE5F03EFEE43DFD33D0E0FB5007D9
:1009E8000BBB000F020B88EC2CFCEF33FFEE33FE41
:0609F800ED33FD020B606F
:1009FE00020B88EC5D046005E859047003020B7E5F
:100A0E00120B49580460F6EC4860F2EC7004FDFEDF
:100A1E00FF22C860DB2481C85009C39860025006CB
:100A2E00020B859850CAF582E9294B4A7005AB82B4
:100A3E00020B7475F0007C1A7880C3EF9BEE9AED72
:100A4E0099400DC3EF9BFFEE9AFEED99FDE842F043
:100A5E00DC23ACF0D0E0FFD0E0FED0E0FDAB822096
:100A6E00E7101BEB60BAEC2CFCEF33FFEE33FEED20
:100A7E0033FD020B60E803F830E705C0F075F000B7
:100A8E00EF2FFFEE33FEED33FD40B830E7C280AA04
:100A9E0074F8CC6480CCC86480C8F582046043C30B
:100AAE00EB9FF5F0EA9E42F0E99D42F0E89C45F09E
:100ABE0060305018E5825FFFE582F42B5582FB50C3
:100ACE00210ABA001D09B90019088016E5825BFBE0
:100ADE00E582F42F5582FF50090EBE00050DBD00B4
:100AEE00010CC3EB9FF5F0EA9E42F0E99D42F0E85F
:0D0AFE009C45F06007CC4820E701B3EC22D6
:100B0B0075F020800E75F010800575F0087D007E65
:100B1B00007F003392D530D503120D8DEC3340108E
:100B2B00EF33FFEE33FEED33FDEC33FCD5F0ED226E
:0E0B3B00E5F0247EA2D513CC92E7CDCEFF22AA
:100DE400E551243DF8E6055122783A300702783D72
:100DF400E475F001120DAE020D352000EB7F2ED20A
:100E0400008018EF540F2490D43440D4FF30040BE6
:100E1400EF24BFB41A0050032461FFE552600215A9
:100E2400520555E5557002055430070D783AE475BE
:100E3400F001120DAEEF020D7B0213FA7403D20718
:100E44008003E4C207F5518B3A8A3B893CE4F552AE
:100E5400F554F555E55260077F20120E1F80F57595
:100E640053FFC201C200C202C203C205C206C208C5
:100E7400120DEDFF700D3007057F00120E30AF55D7
:100E8400AE5422B4255FC2D5C204120DEDFF24D0A6
:100E9400B40A00501A75F00A785230D50508B6FF26
:100EA4000106C6A426F620D5047002D20380D924F4
:100EB400CFB41A00EF5004C2E5D20402111DD201CE
:100EC40080C6D20080C0D20280BCD2D580BAD205FE
:100ED40080B47F20120E1F2002077401B552004017
:100EE400F1120DE4FF120E1F020E58D208D2068032
:100EF40095120DE4FB120DE4FA120DE4F94A4B705D
:100F04000679147A127BFF20022EE552602A7E00B5
:100F14008E82758300120D4E60060EEE655370F0DE
:100F2400C2D5EBC0E0EAC0E0E9C0E0EE12117DD02A
:100F3400E0F9D0E0FAD0E0FB120D35FF60AAEBC077
:100F4400E0EAC0E0E9C0E0120E1FD0E02401F9D0CD
:100F5400E03400FAD0E0FBE5530460DCD553D980DB
:100F640087D20280A212116060F7E5537001041267
:100F74000B93A953600DE553600914F5531212073E
:100F8400EF60F3EA30E702F404C3995077EAF425FA
:100F9400530430E701E404F553800D12116060C17D
:100FA400EA05532553120B93EA7850F630E701E42F
:100FB400255304D553042005011412117DE4C0E027
:100FC4001212077850E6601320E70714F6120E0792
:100FD400802204F6D0E014C0E07F00120E07E5532F
:100FE4006007120DFE1553800B300503120DFED061
:100FF400E0020E58D0E00480C512116060A0E553F1
:1010040004120B937850EAF6E553200502600104BC
:05101400240412117D0F
:1010190074FF04C0E0121207120E07E553200502FF
:101029006003120DFED0E0B553E87F45120E11782A
:1010390050E67F2B30E7047F2DF404C0E0120E1F29
:10104900D0E075F00A84C0F0120E08D0E0120E0844
:10105900020E58791080027908C206C2088008D2A7
:10106900D5790A8004790AC2D5E553047002F5538B
:10107900E4FAFDFEFF120DE4FC7B08200113120DBA
:10108900E4FD7B1030000A120DE4FE120DE4FF7B33
:1010990020EC3382D592D55013C3E43000069FFF6C
:1010A900E49EFEE42001039DFDE49CFCE4CBF8C230
:1010B90001EC700CCFCECDCCE824F8F870F3801792
:1010C900C3EF33FFEE33FEED33FDEC33FCEB33FBC3
:1010D900994002FB0FD8E9EB300105F8D0E0C4488C
:1010E900B201C0E00AEC4D4E4F78207B0070C2EA95
:1010F900B5530040BCC0E012117FD0F0D0E0200110
:1011090004C4C0E0C4B201C0F0120E08D0F0D5F09A
:10111900EB020E58120DBE0EF553105C580EC64C5C
:101129000EC24210604F1068441068490EDB43102C
:101139006E550F9F460FFD450F69471234500ECA71
:101149002D0ECE2E0EF12B0ED2230EEF20121D2ABC
:101159000E8A4800000EE9E553B4FF0375530612E1
:101169000DE4FC120DE4FD120DE4FE120DE4FF780E
:1011790049020BC2790AA2D5200314300509B91016
:10118900020404B9080104A2D52006025001042072
:1011990002689202B552005034C0E07F2030031932
:1011A9007F30A20272067205500F1211D6C202C216
:1011B90006C205C2087F30800F300503E9C0E0127E
:1011C9000E1F300503D0E0F9D0E0B552CC30051739
:1011D9007F30B9100C120E1F7F583004077F7880BA
:1011E90003B90803120E1F3002057F2D020E1F7F5F
:1011F900202008F87F2B2006F322920280CF7F005F
:10120900B4070050052449F8E6FF22286E756C6C76
:101219002900D201120DE43001F8C201785230D50B
:101229000108F6020E8A2D50434958120DE4240391
:10123900B405004001E490122F93120E10743A1273
:0A1249000E10D20375520402105C6F
:100B4900E9D2E7C933E833F892D5EDD2E7CD33ECF2
:070B590033FC5002B2D5226B
:100B6000EC30E7100FBF000C0EBE00080DBD0004F6
:100B70000BEB6014A2D5EB13FCED92E7FD2274FFA2
:100B8000FCFDFEFF22E480F8A2D574FF13FC7D80FB
:030B9000E480EF0F
:100B9300F920E72824F950037907E4F42402FB1829
:100BA300DBFDE624FB5014E9600DE4F618E604F6D9
:0F0BB300B40A08E4F6D9F57401F60A22C2D52275
:100BC200ED33EC3392D5FA602AB4FF33EDC2E77B02
:100BD200FF60067A0B79E7E4227A0B79F020D504DC
:100BE2007A0B79EB224E614E002B494E46002D497D
:100BF2004E4600E47A08F608DAFC7B00740722E825
:100C0200C0E0ECC0E0EDC0E0EEC0E0EFC0E0EA75AD
:100C1200F010A4CAABF075F04DA42BFBE435F0FC48
:100C2200EA2410FAEB34C5FBEC34D9FCEDC2E7FF41
:100C320075F056A4F42411C5F0F434C58FF0A42A3B
:100C4200E5F03BE43CF620E714120CF5D0E0FFD0CF
:100C5200E0FED0E0FDD0E0FC120A018014F40412A0
:100C62000CF5D0E0FFD0E0FED0E0FDD0E0FC1208B1
:100C7200F8D0E0F8E6FAEDD2E7CD33EC332482FB8C
:100C8200E4C3CF33CFCE33CECD33CD33DBF37B07CB
:100C920075F00A846004F6081B0AE5F0F6088FF086
:100CA200740AA4FFACF08EF0740AA42CFEACF050CF
:100CB200010C8DF0740AA42CFDE435F0F608DBDE9D
:030CC20074072292
:100CC5003F8000004120000042C80000447A000037
:100CD500461C400047C35000497424004B189680B9
:100CE5004CBEBC205A0E1BCA6753C21C749DC5AEB0
:100CF500FB60065407601C2323120D23EB54386058
:100D050009120D0F120D1E1208F8ECF8EDF9EEFAA6
:100D1500EFCB22EB120D1E80F1543803241C900CEE
:100D2500C5FE93FC0EEE93FD0EEE930ECE93FF22C1
:030000000214E304
:0C14E300787FE4F6D8FD758155021253A5
:100D3500BB010689828A83E0225002E722BBFE02BC
:090D4500E32289828A83E49322EF
:100D4E00BB010CE58229F582E5833AF583E022505A
:100D5E0006E92582F8E622BBFE06E92582F8E222A4
:0D0D6E00E58229F582E5833AF583E49322BE
:100D7B00BB010689828A83F0225002F722BBFE0157
:020D8B00F32251
:0E0D8D00C3E49FFFE49EFEE49DFDE49CFC2277
:100D9B00E8600FEFC333FFEE33FEED33FDEC33FCB6
:030DAB00D8F1225A
:100DAE00FAE6FB0808E6F925F0F618E6CA3AF62246
:100DBE00D083D082F8E4937012740193700DA3A3C4
:100DCE0093F8740193F5828883E4737402936860D8
:060DDE00EFA3A3A380DFD8
:1013FA00EFB40A07740D121405740A309811A899EB
:10140A00B8130CC2983098FDA899C298B811F63052
:07141A0099FDC299F599222A
:00000001FF
